:03000000023F8735
:0C3F8700787FE4F6D8FD7581D7022DF696
:103F4D0053873F759850E4F59B759AC4759B1ED2A7
:043F5D0099C2AC2237
:10002E003A012A0428002900200021002200230082
:10003E00240025002600270028012802218F2803EE
:10004E002100280428052806280728082809280A38
:10005E00280B280C20802190280D20002100280E2E
:10006E0020812191280F2000219228102100281193
:10007E0021932812210028132814281520822816CF
:10008E0020002817281828192194281A2195281B92
:10009E002196281C2100281D2083281E2000281FA1
:1000AE0021972820210028212822282328242825AA
:1000BE002826282728282829282A2084282B20008B
:1000CE00282C282D282E282F28302831283220851C
:1000DE002833200028342835283628372198283808
:1000EE0021002839283A283B283C283D283E283F25
:1000FE002840284128422843284428452846284796
:10010E0028482849284A284B284C284D284E284F45
:10011E0028502851285228532854285528562857F5
:10012E0028582859285A285B285C285D285E285FA5
:10013E002860286128622199286321002864286597
:10014E002866286728682869286A286B286C286D15
:10015E00286E286F287028712872287328742875C5
:10016E002876287728782879287A287B287C287D75
:10017E00287E287F28802881288228832884288525
:10018E002886288728882889288A288B288C288DD5
:10019E00288E288F289028912086289220872893B1
:1001AE002000289428952896289728982899289AE8
:1001BE00289B289C289D289E289F219A28A02100B4
:1001CE0028A128A228A328A428A528A628A728A8BD
:1001DE0028A928AA28AB28AC28AD28AE28AF28B06D
:1001EE0028B128B228B328B428B528B628B728B81D
:1001FE0028B9208828BA200028BB208928BC2000D6
:10020E0028BD28BE28BF28C028C128C228C3219BCC
:10021E0028C4210028C528C628C728C828C928CA26
:10022E0028CB28CC28CD28CE28CF28D028D128D20C
:10023E0028D328D428D528D628D728D828D928DABC
:10024E0028DB28DC28DD28DE28DF28E028E1208ACC
:10025E0028E2208B28E3200028E428E528E628E77A
:10026E0028E828E928EA28EB28EC28ED28EE28EFE4
:10027E0028F028F128F228F328F428F528F628F794
:10028E0028F8208C28F92000219C28FA219D28FB93
:10029E00208D219E28FC208E219F28FD20002100EC
:1002AE0028FE28FF2A0128002201239524892507EC
:1002BE0026A42707280121C72200238026C4270C45
:1002CE0028022009211C220426AA270A280320001E
:1002DE002100220023A626A0270728042805200592
:1002EE00238426B427092806200022032300248114
:1002FE0025C026AB270A280721AE22002395248984
:10030E00250726A42700280821482201238026C479
:10031E00270C280920092104220426AA270A280AC4
:10032E0020002100220023A826A42707280B280C32
:10033E0021402220238026C4270C280D222426C6E5
:10034E00280E219E220026C8280F200921022214E1
:10035E0026AA270A2810200521002200238426B46D
:10036E0027092811200021012300240125C026ABD6
:10037E00270A281221C32395248925072620270022
:10038E002813200321C223832626270D281421B3E8
:0D039E0022082815200021C62200239526E4
:1003AB000027082816210023002496250326AA27B8
:1003BB000A2817204221B6238024892507281820D4
:1003CB000021002394260E2819200F238426B427FE
:1003DB0009281A2000239326A82703281B26282741
:1003EB0000281C21012300240125C026AB270A2845
:1003FB001D21C523952489250726202700281E218A
:10040B000023942600270A281F260E2820200321CC
:10041B0079220123832626270D2821213228222009
:10042B0000210422002380240025FC26AA270A2869
:10043B0023210023002500282421A3220D2380241F
:10044B009E253B2825204221572201248925072858
:10045B002620002143220D2400253828272108229D
:10046B009823952489250726242700282820422114
:10047B00932201238026AA270A28292003217E22E2
:10048B000423832626270D282A200021B0220023AF
:10049B009526A02707282B21002300240C250426B2
:1004AB00AA270A282C21022380248625C326AB28C1
:1004BB002D2042219722012489250726AA282E20A8
:1004CB000021002200241F2504282F21B22395246C
:1004DB008925072620270428302042218B2204233C
:1004EB008026AA270A2831200021B1220023952635
:1004FB00A0270728322003217522042383262627D1
:10050B000D2833200521002200238426B427092837
:10051B0034200021602300240125C026AB270A28A4
:10052B00352108229823952489250726242700287E
:10053B003621BC2200283721A3220D2300240125BC
:10054B00C026AB270A2838216022002380240025EF
:10055B003826AA283921062298239524892507268F
:10056B00242700283A21BE2200283B200521002306
:10057B008426B42709283C20002160230024012570
:10058B00C026AB270A283D21422201239524892529
:10059B000726242700283E210C229826A42707286B
:1005AB003F21082840216022002300240125C0267A
:1005BB00AB270A2841210C2298239524892507264D
:1005CB002427002842200521002200238426B4275B
:1005DB00092843200023802400251026AB270A2856
:1005EB00442122220123952489250726242700282C
:1005FB00452100220023002404251226AA270A28BD
:10060B0046200321D4220523832489250726262768
:10061B000D28472000216022002300240125C0263D
:10062B00AB270A284821B3239524892507260027C1
:10063B00082849210023002409250026AA270A2877
:10064B004A210223802486253B284B204221DD2290
:10065B000524892507284C200021002200241F2572
:10066B0000284D21B3239524892507262027002810
:10067B004E210023002497250326AA270A284F2062
:10068B004221E222052380248925072850200021BE
:10069B001022002300248025CC26AB2851210022D8
:1006AB004023B42489250726AA2704285222002395
:1006BB00B0269227092853211422012395260027BF
:1006CB00082854214823A4262A2700285521002234
:1006DB000023002409250026AA270A2856210823CF
:1006EB00802486253B285720422111220724892567
:1006FB00072858200021002200241F2500285921FB
:10070B0014220123952489250726202700285A2106
:0D071B001626022709285B2100220023007A
:100728002480254826AA270A285C23A0248925078F
:1007380026142709285D2480255026A42704285E2E
:10074800211622012395248925072700285F2104E3
:1007580022002300249C257826AA270A2860214302
:10076800220D240125C426AB28612103220024156B
:10077800286221002400250026AA2863215E2395EB
:100788002489250726102709286421032300241516
:1007980025C426AB270A28652100238024002506C6
:1007A80026AA2866248F25E326AB2867204221CD78
:1007B80022072489250726AA28682000216022000C
:1007C8002300240125C026AB286921002380248F1B
:1007D800250326AA286A204221DD22072489250725
:1007E800286B20002143220D2300240125C026ABBD
:1007F800286C210022002400250426AA286D200345
:10080800217F22012383248925072626270D286E88
:100818002162286F200521002200238426B427099D
:100828002870200021062395260027082871210119
:1008380023002497253B26AA270A28722042210E46
:10084800220823802489250728732003213C220BB2
:1008580023832626270D28742000210322002395B0
:1008680026022708287521272300248125C426ABC2
:10087800270A2876210023802409254826AA2877D4
:100888002158223423A324892507262A27002878DB
:100898002100220023A02600270928792107238088
:1008A8002403253926AA270A287A21042300241C90
:1008B8002538287B2107238024832539287C210398
:1008C80023952489250726022708287D2127230028
:1008D800248125C426AB270A287E210023802409E9
:1008E800254826AA287F2158223423A324892507AE
:1008F800262A27002880210622002300248125C0DB
:10090800269327012881210023802489254826AAA7
:10091800270A28822002216622082300240025664F
:1009280028832000210022002380241F25022884F8
:1009380021062489250726DC270C2885210023AADF
:1009480026AA270A288623B6260027082887238070
:100958002486253B26AA270A2888210524892507D5
:1009680026DC270C2889210023AA26AA270A288AF8
:1009780023B626002708288B23802486253B26AA11
:10098800270A288C2042217B220824892507288DC4
:10099800200021002200230024012582288E210521
:1009A800248125C226AB288F200321932208238384
:1009B800248925072626270D2890200021052200B6
:1009C8002300248125C02613270128912100238094
:1009D8002489254826AA270A28922002217E22084F
:1009E800230024002566289320002100220023806C
:1009F800241F2502289421052489250726DC270C95
:100A08002895210023AA26AA270A289623B6260075
:100A18002708289723802486253B26AA270A289872
:100A280021052489250726DC270C2899210023AADB
:100A380026AA270A289A2380241F2502289B2101F9
:100A48002300248125C226AB289C20032193220859
:100A58002383248925072626270D289D2000210485
:100A68002200239526122708289E216023C426AA3F
:100A78002704289F210023C02600270928A02042F8
:100A880021CB2208238026AA270A28A120702154D6
:0D0A980022B823952612270828A22002214B
:100AA500CC2208238026AA270A28A3200321CA22AC
:100AB5000F23832626270D28A420002100220023AA
:100AC50000248C250C26AA270A28A5210424822582
:100AD5007828A62100238024892548261227042862
:100AE500A7200321DE220F238325072626270D288D
:100AF500A82000210122002300249C257826AA276E
:100B05000A28A9210023802481254028AA20032121
:100B1500CF220F2383248925072626270D28AB20DE
:100B250070210822B8239526A0270428AC2003218C
:100B3500D4220F23832626270D28AD2127220B2813
:100B4500AE2070216322B823952612270828AF20EE
:100B550000210122002380248625CB26AB270A28E5
:100B6500B0204221DD22082489250726AA28B120A4
:100B75000021182280239526A4270028B2200321CE
:100B8500D9220F23832626270D28B32070210A2278
:100B9500B8239526A0270028B4200221E0220823A7
:100BA5008026AA270A28B52070210A22B82395266F
:100BB500A0270028B621542602270828B72000219F
:100BC50018228026A4270028B8210022002380248B
:100BD50080254826AA270A28B92070215E22B82335
:100BE50095248925072612270828BA2000210022E6
:100BF5000023802409254B26AA270A28BB2070211B
:100C05005F22B82395248925072610270828BC20AC
:100C150000210022002300241C258326AB270A2857
:100C2500BD2003213222092383248925072626276F
:100C35000D28BE20002100220023002482258C26B9
:100C4500AB270A28BF2003212522092383248925D0
:100C5500072626270D28C0204221BC238026AA2747
:100C65000A28C12000210122002300240125C026D5
:100C7500AB28C22070210F22B82395248925072689
:100C850020270028C3200321E3220F2383262627BC
:100C95000D28C4200521002200238426B427092815
:100CA500C52000210323952614270828C621A6233D
:100CB500A4262A270528C7210023A026442709287A
:100CC500C82118226D2380249E257B26AA270A2861
:100CD500C920422113220B2489250728CA20002177
:100CE500AE220023952624270028CB2100220323AA
:100CF500802487257B26AA270A28CC204221162274
:100D05000B2489250728CD200021AE220023952616
:100D150024270028CE20052100238426B42709286E
:100D2500CF2003210D220B23832626270D28D02033
:100D35000021002200230024802602270028D12339
:100D45008024092548261E28D221582234233324FD
:100D5500802507262A28D321002200230026802764
:100D65001028D421102363262A270028D521002303
:100D75006026A8271228D621AF224C230026C82793
:100D85000C28D7210022002680270528D823802477
:100D950086253B261E270028D92042211C220E230A
:100DA500002480250728DA20002135222926C4279A
:100DB5000C28DB2002211D220E261E270028DC2000
:100DC50000217F223426C4270C28DD2100220023A0
:100DD50090249F25042610270A28DE230024842535
:100DE500002680271028DF21062363248025072677
:100DF5002A270028E021002380248926AA270A28FB
:100E0500E12005238426B4270928E22070216122E8
:0D0E1500B823952612270828E320002101AC
:100E220022002380248625C326AB270A28E42042F9
:100E320021CE220F2489250726AA28E520702150D9
:100E420022B823952612270828E620052100220031
:100E5200238426B4270928E72070216422B8239529
:100E62002612270828E82000210122002380248658
:100E720025C326AB270A28E9204221D3220F248941
:100E8200250726AA28EA2070215122B82395261286
:100E9200270828EB200521002200238426B42709F5
:100EA20028EC2070216522B823952612270828ED08
:100EB2002000210122002380248625C326AB270A95
:100EC20028EE204221D8220F2489250726AA28EFBE
:100ED2002070215222B823952612270828F02005D7
:100EE20021002200238426B4270928F120702161E1
:100EF20022B823952602270828F220002101220089
:100F02002380248625C326AB270A28F3204221DD2D
:100F1200220F2489250726AA28F42070215022B8FE
:100F220023952602270828F5200521002200238484
:100F320026B4270928F6200021012380248625CB08
:100F420026AB270A28F7204221E1220F2489250710
:100F520026AA28F82000210222002300248125C489
:100F620026AB28F9210023802489254826AA28FABD
:100F720020052384250726B4270928FB2070214E4B
:100F820022B823952610270828FC200021002200E1
:100F92002380248625C326AB270A28FD204221E789
:100FA200220F2489250726AA28FE200021BB220021
:100FB20023952620270028FF20052100238426B41C
:100FC20027092A081001FFFFFFFFFFFF3A00643ADA
:100FD20065BB083A09BB50105267517705A1180446
:100FE200540155210700060C0B0350105100520406
:100FF200610F6455655505A11804FFFFFFFFFFFF50
:101002005407551052B8510065006400500661053E
:1010120005A10D0018040C01460948097201FFFFE1
:04102200FFFFFFFFCE
:103F610075CD7E75CC9775CB7E75CA97D2ADD2AF24
:033F7100D2CA228F
:03002B00021DD8DB
:101DD800C0E0C0F0C083C082C0D075D000C000C0D1
:101DE80001C002C003C004C005C006C007C2CF7B43
:101DF800007A00796D7F01123A5BE56DB4040375D2
:101E080008007B007A00796B7F02123A5BE56B640D
:101E180004703AE5086401700B750804751513F52C
:101E280016FB800B7508017515137516017B007A72
:101E38000079157D027F431236EC7515147516006E
:101E48007B007A0079157D027F431236ECE51BB4DE
:101E58000217E47F40FEFDFCAB0CAA0BA90AA809F7
:101E6800C31218814003751B03E51BB40617E47FF2
:101E780040FEFDFCAB0CAA0BA90AA809C3121881E5
:101E88004003751B07E51BB4080040030221679057
:101E98001E9EF8282873021EB6021F02021F88021F
:101EA8001FD3021EDC0220E102203302207ED2A7CB
:101EB800D2A4D2A5D2A6758C8A758A5BC28DD28C23
:101EC800309203308DFAC28C309203022167751B61
:101ED80001022167D2A7D2A4D2A5D2A6758C8A7591
:101EE8008A5BC28DD28C309203308DFAC28C2092DC
:101EF80006751B0502216702202DE50864016003B1
:101F0800022167758C8A758A5BC28DD28CD293C286
:101F1800A7D2A4D2A5D2A620924C208D4974002520
:101F28000EF5827400350DF583E0FF7B007A0079A9
:101F38001C123E31050EE50E7002050DD394FFE527
:101F48000D940140D2D3E51094FFE50F9401400FA2
:101F5800E508B403057508008008751B068003753D
:101F68001B05D28D80B1309214D3E51094FFE50F94
:101F780094014006751B06022163751B000221634C
:101F8800D2A7D2A4C2A5D2A6E51A250CFFE5193519
:101F98000BFEE518350AFDE5173509FC755C027579
:101FA8005D00755E01755F00756000123D58E50CB7
:101FB8002401F50CE4350BF50BE4350AF50AE43594
:101FC80009F509750D00750E00805AAF14AE13ADF2
:101FD80012AC11754D00754E001238808F148E1397
:101FE8008D128C11D2A7C2A4D2A5D2A674FFFFFE6F
:101FF800FD7C0FAB14AA13A912A811C31218817083
:1020080005750803801FAF14AE13AD12AC11123B57
:10201800518F1A8E198D188C17750C00750B007559
:102028000A00750900751B04022167D2A7D2A4D241
:10203800A5C2A6E51A250CFFE519350BFEE51835EE
:102048000AFDE5173509FC755C02755D00755E01D2
:10205800755F02756000123D58E50C2401F50CE42B
:10206800350BF50BE4350AF50AE43509F509750F62
:1020780000751000805DD2A7C2A4D2A5D2A6AF1465
:10208800AE13AD12AC11754D02754E001238808F2B
:10209800148E138D128C1174FFFFFEFD7C0FAB1490
:1020A800AA13A912A811C31218817008750803F59C
:1020B8001B022167AF14AE13AD12AC11123B518F46
:1020C8001A8E198D188C17750C00750B00750A007F
:1020D800750900751B00022167E5086401600302A9
:1020E8002167758C8A758A5BC28DD28CC2A7D2A4EF
:1020F800D2A5D2A6D29320924C208D4974002510E7
:10210800F5827402350FF583E0FF7B007A00791CB5
:10211800123E310510E5107002050FD394FFE50F4C
:10212800940140D2D3E50E94FFE50D9401400FE5EC
:1021380008B403057508008008751B028003751B29
:1021480001D28D80B1309213D3E50E94FFE50D9442
:10215800014005751B028003751B04C28CC293D015
:1021680007D006D005D004D003D002D001D000D0CB
:0A217800D0D082D083D0F0D0E03246
:1037B9008F148E138D128C11123B518F1A8E198D05
:1037C900188C17E4F50CF50BF50AF509C2A5F50DEA
:1037D900F50EE51A250CFFE519350BFEE518350A36
:1037E900FDE5173509FC755C02755D00755E0175AF
:1037F9005F00756000123D58E50C2401F50CE435B5
:103809000BF50BE4350AF50AE43509F509D2A5C229
:10381900A6E4F50FF510E51A250CFFE519350BFEA1
:10382900E518350AFDE5173509FC755C02755D007B
:10383900755E01755F02756000123D58E50C240143
:10384900F50CE4350BF50BE4350AF50AE43509F511
:1038590009D2A6750801E4F51BF51C123F0A538924
:10386900F0438901C2A9123F61E5086003B403F975
:07387900C2ADC2AFC2CA22BA
:103E01002535642E20005B4449525D0A00202020A4
:103E1100202020202020202046696C652053697ACB
:103E2100653A256C7520427974657300256C7500BF
:073F93007B007A0079C222D5
:082809008F258E248D238C2203
:10281100852628852729E478B0F608F678AA1219C2
:102821006100000000E478AEF608F678C3E6B40271
:102831000778D412190C800878C2E6FFE4FCFDFE8B
:1028410078A6121955AF25AE24AD23AC2278A21279
:10285100195578A212190C78C6E6F55C08E6F55D03
:10286100755E0185285F852960123D5878B6EFF6BF
:102871006003022B0FC20078AEE6FE08E6FFAA282D
:10288100A9297B01123F4178B2EFF664E57003029A
:102891002A7CE67003022A7C78AFE6240BFF18E459
:1028A10036FEAA28A9297B01123F4178B4EFF654DC
:1028B1000E6003022A7C78B106E61870010620003A
:1028C1003D7BFF7A3E790178B0E6F53808E6F539C7
:1028D1001221E4E478B3F678B3E6FFC39408501EFE
:1028E100EF78AF26FFE41836FEAA28A9297B01124A
:1028F1003F4178B5EFF612000378B30680D978B47A
:10290100E630E43920002A18760878B3E6FFC3944C
:102911000B501EEF78AF26FFE41836FEAA28A9292E
:102921007B01123F4178B5EFF612000378B30680C0
:10293100D97BFF7A3E79071221E4022A7C200030FC
:102941007F2E12000378B3760878B3E6FFC3940BA9
:10295100501EEF78AF26FFE41836FEAA28A9297B7E
:1029610001123F4178B5EFF612000378B30680D922
:1029710078AFE6241FFF18E436FEAA28A9297B01B7
:10298100123F41E4FCFDFE78AA12195578AA1219EA
:102991000C78081218A578AA12195578AA121918D4
:1029A100C000C001C002C00378AFE6241EFF18E4D6
:1029B10036FEAA28A9297B01123F41D003D002D0BB
:1029C10001D000EB4FFFEAFEE9FDE8FC78AA1219FD
:1029D1005578AA12190C78081218A578AA12195557
:1029E10078AA121918C000C001C002C00378AFE66E
:1029F100241DFF18E436FEAA28A9297B01123F41B4
:102A0100D003D002D001D000EB4FFFEAFEE9FDE890
:102A1100FC78AA12195578AA12190C78081218A56F
:102A210078AA12195578AA121918C000C001C0025B
:102A3100C00378AFE6241CFF18E436FEAA28A929B2
:102A41007B01123F41D003D002D001D000EB4FFFF8
:102A5100EAFEE9FDE8FC78AA1219557BFF7A3E7976
:102A61000E78AA12190C8F3B8E3A8D398C381221AF
:102A7100E47F0D1200037F0A12000378AF74202651
:102A8100F618E436F6D308E694FE18E6940140748D
:102A910078A212190CEF2401FFE43EFEE43DFDE4AF
:102AA1003CFC78A212195578A212190CC3EF952596
:102AB100FFEE9524FEED9523FDEC9522FC78A61200
:102AC1001918D3121881403078A212190C78C6E671
:102AD100F55C08E6F55D755E0185285F8529601264
:102AE1003D5878B6EFF66008E478B0F608F608F6D7
:102AF100E478AEF608F6800C78B0E64480F608E695
:102B0100F6E408F678B2E660030228768006E478F7
:0B2B1100B0F608F678B0E6FE08E6FF1C
:012B1C002296
:081026008F258E248D238C22FE
:10102E00852830852931E478B6F608F678B2F608C8
:10103E00F678AA1219610000000078C3E6B4020720
:10104E0078D412190C800878C2E6FFE4FCFDFE7815
:10105E00A6121955AF25AE24AD23AC2278A21219D3
:10106E005578A212190C78C6E6F55C08E6F55D75A2
:10107E005E0185305F853160123D5878BAEFF660BB
:10108E00030215BF78B2E6FE08E6FFAA30A9317B4F
:10109E0001123F4178B8EFF664E5700302152FE6B2
:1010AE00700302152F78B3E6240BFF18E436FEAA60
:1010BE0030A9317B01123F4178B9EFF6540E60032F
:1010CE0002152F78B706E61870010678B7E6652781
:1010DE00700418E66526600302152F78C3E66404D3
:1010EE00707078B3E62415FF18E436FEAA30A931E5
:1010FE007B01123F41E4FCFDFE78AA12195578AA35
:10110E0012190C78081218A578AA12195578AA1275
:10111E001918C000C001C002C00378B3E62414FF42
:10112E0018E436FEAA30A9317B01123F41D003D01C
:10113E0002D001D000EB4FFFEAFEE9FDE8FC78AAF1
:10114E0012195578AA12190C78081218A578AA1235
:10115E00195578AA121918C000C001C002C0037830
:10116E00B3E6241BFF18E436FEAA30A9317B011228
:10117E003F41D003D002D001D000EB4FFFEAFEE991
:10118E00FDE8FC78AA12195578AA12190C780812E3
:10119E0018A578AA12195578AA121918C000C001FC
:1011AE00C002C00378B3E6241AFF18E436FEAA3054
:1011BE00A9317B01123F41D003D002D001D000EB08
:1011CE004FFFEAFEE9FDE8FC78AA121955E478B45F
:1011DE00F608F678B4E6FE08E6FFC39410EE940027
:1011EE005019AB2DAA2EA92F8F828E837420121622
:1011FE007278B506E61870DB0680D8E5262430AB8B
:10120E002AAA2BA92C121660E5272430AB2AAA2B6A
:10121E00A92C900001121672900002742E121672F2
:10122E0078B3E6240BFF18E436FEAA30A9317B0111
:10123E00123F4178B9EFF620E40302133278AA1276
:10124E00190CEC4410FC78AA121955E478B4F6087F
:10125E00F678B4E6FE08E6FFC39408EE9400503329
:10126E0078B3E62FFF18E63EFEAA30A9317B0112B5
:10127E003F41AB2AAA2BA92C78B5E62403FD18E42E
:10128E00368D82F583EF12167278B506E61870C1A8
:10129E000680BE78B4760008760878B4E6FE08E6D6
:1012AE00FFC3940BEE9400503378B3E62FFF18E68D
:1012BE003EFEAA30A9317B01123F41AB2AAA2BA9CF
:1012CE002C78B5E62403FD18E4368D82F583EF12F3
:1012DE00167278B506E61870C10680BEAB2AAA2B28
:1012EE00A92C78B4E6FE08E6FFF5828E83A3A3A3AD
:1012FE00742012167274042FF582E43EF583742066
:10130E00121672AB2DAA2EA92F7444121660AB2D95
:10131E00AA2EA92F90000174491216729000027421
:10132E0052021528E478B4F608F678B4E6FE08E61C
:10133E00FFC39408EE9400503378B3E62FFF18E6FF
:10134E003EFEAA30A9317B01123F41AB2AAA2BA93E
:10135E002C78B5E62403FD18E4368D82F583EF1262
:10136E00167278B506E61870C10680BEAB2AAA2B97
:10137E00A92C78B5E62403FF18E4368F82F5837422
:10138E002E12167278B4760008760878B4E6FE0847
:10139E00E6FFC3940BEE9400503378B3E62FFF189C
:1013AE00E63EFEAA30A9317B01123F41AB2AAA2BA1
:1013BE00A92C78B5E62404FD18E4368D82F583EF6A
:1013CE0012167278B506E61870C10680BEAB2AAA50
:1013DE002BA92C78B5E62404FF18E4368F82F5830A
:1013EE00742012167278B3E6241FFF18E436FEAA94
:1013FE0030A9317B01123F41E4FCFDFE78AE12199B
:10140E005578AE12190C78081218A578AE12195527
:10141E0078AE121918C000C001C002C00378B3E63E
:10142E00241EFF18E436FEAA30A9317B01123F417B
:10143E00D003D002D001D000EB4FFFEAFEE9FDE869
:10144E00FC78AE12195578AE12190C78081218A540
:10145E0078AE12195578AE121918C000C001C0022C
:10146E00C00378B3E6241DFF18E436FEAA30A93176
:10147E007B01123F41D003D002D001D000EB4FFFD1
:10148E00EAFEE9FDE8FC78AE12195578AE12190C99
:10149E0078081218A578AE12195578AE121918C020
:1014AE0000C001C002C00378B3E6241CFF18E43666
:1014BE00FEAA30A9317B01123F41D003D002D001E8
:1014CE00D000EB4FFFEAFEE9FDE8FC78AE121955AD
:1014DE007538FF75393E753A2D78AE12190C8F3E60
:1014EE008E3D8D3C8C3BAB2DAA2EA92F1221DEAB4F
:1014FE002DAA2EA92F90000B744212167290000C7A
:10150E00745912167290000D745412167290000EC9
:10151E00744512167290000F7453121672E478B856
:10152E00F678B3742026F618E436F6D308E694FE61
:10153E0018E69401407178A212190CEF2401FFE411
:10154E003EFEE43DFDE43CFC78A212195578A21251
:10155E00190CC3EF9525FFEE9524FEED9523FDECBA
:10156E009522FC78A6121918D3121881403578A24C
:10157E0012190C78C6E6F55C08E6F55D755E018518
:10158E00305F853160123D5878BAEFF6600D78AA5B
:10159E0012196180000000E478B8F6E478B2F6081B
:1015AE00F68004E478B8F678B8E66003021092800C
:1015BE000978AA12196180000000E4FFFEFDFC7894
:1015CE00AA121918C3121881700978AA121961800B
:0815DE0000000078AA12190CAC
:0115E60022E2
:103C30004C6F636174696E6720426F6F74205365C7
:103C400063746F722E2E2E0A0D0052656C617469BA
:103C5000766520536563746F7273203D20256C6414
:103C60000A0D004469736B204572726F72210A0D50
:103C70000046415431362044657465637465642E92
:103C80002E2E0A0D0046415433322044657465637C
:093C90007465642E2E2E0A0D004D
:093F3800AA24A9257B01E4FFFE87
:0B3F41005306018F828E83121600FFD2
:013F4C002252
:083D9B007B01AA24A9257E008A
:0A3DA3008E588F598B5A8A5B895C99
:103DAD00535801E92559F9EA3558FA9000011216D0
:103DBD0000FEAA5BA95C855982855883121600FF07
:013DCD0022D3
:073ADA00AA24A9257B01FECF
:0A3AE1008E588F598B5A8A5B895C5E
:103AEB00E4F560F55FF55EF55D535801F561AB5A92
:103AFB00E55C2559F9E55B3558FAC374039561FF0D
:103B0B00E49400FEE92FF9EA3EFA1215E7FBAF60E9
:103B1B00AE5FAD5EAC5D78081218A58F608E5F8DC1
:103B2B005E8C5DAF03E5604FF560E55FF55FE55ECD
:103B3B00F55EE55DF55D0561E561B404B1AF60AEC1
:053B4B005FAD5EAC5D02
:013B50002252
:041A19008E228F2367
:101A1D00123F938B268A2789288522248523257BAF
:101A2D00FF7A3C79301221E4755C02755D00755EBC
:101A3D000185245F8525607F007E007D007C00127E
:101A4D003D58123F3878C1EFF664EB6049E664E922
:101A5D006044AA24A9257FC67E01123AE178AE1210
:101A6D00195578AE12190C755C02755D00755E0125
:101A7D0085245F852560123D587BFF7A3C794A7835
:101A8D00AE12190C8F3B8E3A8D398C381221E4121F
:101A9D003F3878C1A60778C1E6FF64EB6011EF64AB
:101AAD00E9600C7BFF7A3C79631221E47FF0227FA1
:101ABD000B123D9BAB26AA27A928900004EE8FF0B0
:101ACD00121721900002E41216729000041216E90A
:101ADD0078BEA6F008F678BEE6FE08E6FF64014E75
:101AED00601AAB26AA27A928900002740112162DA0
:101AFD00EEC31379BEF7EF1309F780DAAA24A925EF
:101B0D007B017F0D7E00123F41AB26AA27A928EF4E
:101B1D001216607F0E123D9B78BAA60608A607AA7C
:101B2D0024A9257F107E00123F4178C0A6077F11A2
:101B3D00123D9D78BCA60608A607AA24A9257F13E9
:101B4D007E00123DA3E4FCFD78A2121955E4FFFEC0
:101B5D00FDFC78A2121918C3121881700A7F201289
:101B6D003ADA78A2121955AA24A9257B017F167E8F
:101B7D0000123DA3E4FCFD78B2121955E4FFFEFD01
:101B8D00FC78B2121918C3121881701C7F24123AF6
:101B9D00DA78B2121955AA24A9257B017F2C7E0073
:101BAD00123AE178B6121955AB26AA27A92890004A
:101BBD00041216E9FDACF024FFFBEC34FFFA78BCFF
:101BCD00E6FE08E67805C333CE33CED8F92BFFEA0F
:101BDD003EFE121694E4FCFDAB26AA27A928900020
:101BED00121218E878C0E6FFE4FCFDFE78B2121977
:101BFD001812174EC004A905AA06AB0778BAE6FE5F
:101C0D0008E6FFE4FCFDD000EB2FFFEA3EFEED39C8
:101C1D00FDEC38FCAB26AA27A92890001212192535
:101C2D00EF2BFFEE3AFEED39FDEC38FCC004C0059C
:101C3D00C006C00778A212190CD003D002D001D073
:101C4D0000C3EF9BFFEE9AFEED99FDEC98FC78A694
:101C5D00121955AB26AA27A9281215E7FFE4FCFD9A
:101C6D00FEC004C005C006C00778A612190CD0032B
:101C7D00D002D001D0001217D978AA12195578BA0E
:101C8D00E6FE08E6FFE4FCFD78AE121918EF2BFF17
:101C9D00EE3AFEED39FDEC38FCAB26AA27A92890CB
:101CAD00000E1218E890000E121925C000C001C0D8
:101CBD0002C00378C0E6FFE4FCFDFE78B2121918ED
:101CCD0012174ED003D002D001D000EF2BFFEE3A09
:101CDD00FEED39FDEC38FCAB26AA27A928900012A1
:101CED00121925EF2BFFEE3AFEED39FDEC38FCAB6A
:101CFD0026AA27A92890000A1218E8E47FF57EFF8E
:101D0D00FDFC78AA121918C3121881AB26AA27A9AF
:101D1D002890000150447402121672900003740151
:101D2D001216727BFF7A3C79711221E4AB26AA2739
:101D3D00A92890000E121925C000C001C002C003D1
:101D4D0078C0E6FFE4FCFDFE78B212191812174EAA
:101D5D00D003D002D001D0008056740412167290B8
:101D6D00000374021216727BFF7A3C79851221E40E
:101D7D0078B612190CEF24FEFFEE34FFFEED34FFA2
:101D8D00FDEC34FFFCA804C005C006C007AB26AAB5
:101D9D0027A9281215E7FFE4FCFDFED003D002D0E1
:101DAD000112174EAB26AA27A92890000A12192551
:101DBD00EF2BFFEE3AFEED39FDEC38FCAB26AA27F2
:0A1DCD00A9289000061218E87F0014
:011DD70022E9
:083B51008F4C8E4B8D4A8C490C
:103B5900E4FFFEFDFCAB4CAA4BA94AA849C31218C5
:103B690081700F78C812190C8F508E4F8D4E8C4D65
:103B7900803EE54C24FEFFE54B34FFFEE54A34FF69
:103B8900FDE54934FFFCC004A905AA06AB0778C2C4
:103B9900E6FFE4FCFDFED00012174E78CC1219188E
:103BA900EF2BF550EE3AF54FED39F54EEC38F54D72
:083BB900AF50AE4FAD4EAC4D14
:013BC10022E1
:083880008F4C8E4B8D4A8C49E0
:10388800755501854D56854E57C379C4E778C59659
:10389800F9F812189278D0121918EF2BFFEE3AFEA9
:1038A800ED39FDEC38FC78C6E6F55C08E6F55D8593
:1038B800555E85565F855760123D58AF4CAE4BAD8F
:1038C8004AAC4978C5E6F9F81218A5C004AA06ABAF
:1038D8000778C7E624FFFF18E634FFFED000EB5F49
:1038E800FFEA5EFE8E538F5478C3E6B40419AB55D5
:1038F800AA56A957123AE1EFF552EEF551EDF550F7
:10390800EC540FF54F801C78C3E6B40216AB55AAE9
:1039180056A957AF54AE53123DA3E48F528E51F5BA
:0B39280050F54FAF52AE51AD50AC4F08
:013933002271
:0A36EC008F498D4A8B4B8A4C894DA3
:1036F600D290D291E4F54F2091030237B320900384
:103706000237B3123F74E54925E0F54E534EFEC22B
:1037160090054A7550087F01123EF4C2911550AFCC
:1037260050E54EA807088002C313D8FC5401F55192
:10373600123EEED2913091FDA290E433F5526551DE
:103746006003754F81E550D394004004E54F60C691
:103756007F01123EF4C291D290154AAB4BAA4CA9F6
:103766004D1215E7F54E7401254DF54DE4354CF532
:103776004C7F01123EF4D2913091FDA290E433F5D4
:10378600526003754F82E54AD394004004E54F60CA
:10379600827F01123EF4C291C2907F01123EF4D2A2
:1037A600913091FD7F02123EF4D2908003754F81D5
:0237B600AF4F13
:0137B80022EE
:0A33F1008F258D268B278A28892955
:1033FB00D290D291E4F52B20910302350320900358
:10340B00023503123F74E52525E0F52A432A01C254
:10341B0090752C087F01123EF4C291152CAF2CE550
:10342B002AA807088002C313D8FC5401F52D123EBD
:10343B00EED2913091FDA290E433F52E652D600311
:10344B00752B81E52CD394004004E52B60C67F01DE
:10345B00123EF4C291D2907F01123EF4D291309180
:10346B00FDA290E433F52E6003752B82E526D394F1
:10347B00004069E52B7065752C087F01123EF4C284
:10348B0091152CD290E52F25E0F52F7F01123EF4FC
:10349B00D2913091FDA290E433F52E422FE52CD33F
:1034AB00940050D6AB27AA28A929E52F12166074D1
:1034BB00012529F529E43528F528E526B4010575FC
:1034CB002D018003E4F52D7F01123EF4C291E52D11
:1034DB00123EEED2913091FD152680907F01123E67
:1034EB00F4C291C2907F01123EF4D2913091FD7FD4
:0D34FB0002123EF4D2908003752B81AF2B9E
:0135080022A0
:103F74005389F0438901C2A9758CFF758AC3C28D28
:033F8400D28C22BA
:063EEE0024FF92907F0109
:103EF400308C03308DFDC28CBF010A758CFF758A2E
:063F0400C3C28DD28C2225
:083D58008F5B8E5A8D598C58C7
:103D6000E4FF123F9AAB07C294AF5BAE5AAD59ACB9
:103D700058A8031218A58F658E648D638C627F111D
:103D8000123516EF700DAB5EAA5FA960AF5DAE5C39
:0A3D9000123605D294EF60027FF0B6
:013D9A002206
:1030BB005344204361726420496E697469616C6981
:1030CB007A6174696F6E202E2E2E200A0D00434DEF
:1030DB0044302073656E74202E2E2E2000526573A3
:1030EB00706F6E7365203D2025322E3262580A0DAB
:1030FB0000434D44382073656E74202E2E2E200015
:10310B00526573706F6E7365203D200025322E3231
:10311B006258200056657273696F6E2031205344DC
:10312B0020436172642064657465637465642E0A60
:10313B000D005374616E646172642043617061634E
:10314B006974792043617264206465746563746586
:10315B00642E0A0D0056657273696F6E2032205310
:10316B004420436172642064657465637465642EE6
:10317B000A0D00434D4435382073656E74202E2E96
:10318B002E200041434D4434312073656E74202E44
:10319B002E2E200048696768204361706163697453
:1031AB007920436172642044657465637465640AB5
:1031BB000D005374616E64617264204361706163CE
:1031CB006974792043617264204465746563746526
:1031DB00640A0D00434D4431362073656E74202E06
:1031EB002E2E2000526573706F6E7365203D202567
:1031FB00322E326258200A0D00426C6F636B2073C3
:10320B00697A652073657420746F203531322062C2
:10321B00797465730A0D0054696D656F757420457B
:10322B0072726F7200496C6C6567616C20436F6DD5
:10323B006D616E640A0D00526573706F6E7365205D
:10324B004572726F72004461746120546F6B656ECE
:10325B00204572726F7200496E636F6D7061746995
:10326B00626C6520566F6C746167650043617264B4
:10327B0020697320496E6163746976650053504908
:10328B00206F722054696D656F7574204572726F73
:10329B007200556E6B6E6F776E204572726F720097
:0D350900C294E4F565F564F563F5627F3A60
:023516008F61C3
:10351800E4F567E561C3944040030235FFE5614483
:1035280040F5667B007A007968FF123E31EF701A29
:10353800AF65AE64AD63AC6278181218928F667B83
:10354800007A007968123E318003756787E56770F5
:103558002CEF7029E565F565E564F564E563F563C9
:10356800E4F562AF65AE64AD63AC62781012189290
:103578008F667B007A007968123E31800375678711
:10358800E567702AEF7027E565F565E564F564E49D
:10359800F563F562AF65AE64AD63AC627808121886
:1035A800928F667B007A007968123E3180037567D6
:1035B80087E5677015EF7012E565FFE48F66FB7AA3
:1035C800007968AF66123E318003756787E56770DA
:1035D80029EF7026E5617005756695800DE561B483
:1035E800080575668780037566017B007A0079682F
:0C35F800AF66123E318003756782AF673A
:0136040022A3
:0739CA00FB7A0079257F0163
:0839D1008F348B358A368937EB
:1039D900E4F5397B007A00793A7FFF123E310538E8
:1039E900E53A30E707E5386003EF60E7EF60057512
:1039F90039878050E53870057539818047AB35AA1C
:103A090036A937E53A121660E53A60046401703167
:103A1900E534D39401402D753801E538C395345008
:103A2900237B007A00793A7FFF123E31AB35AA3603
:103A3900A937853882758300E53A121672053880F0
:103A4900D97539837B007A00793A7FFF123E31AF0D
:013A59003933
:013A5A002249
:0A3605008E618F628B638A64896511
:10360F00E4F568F569F5667B007A0079677FFF124C
:10361F003E310569E56970020568E56730E709E540
:10362F006945686003EF60DFEF60028037E5694549
:10363F00687002803AE56760030236DBF568F5696A
:10364F007B007A0079677FFF123E310569E569706B
:10365F00020568E567B4FF09E56945686003EF6037
:10366F00DFEF60057566878066E5694568700575EB
:10367F006681805BE56764FE704DF568F569C3E5AB
:10368F00699562E568956150267B007A0079677FBE
:10369F00FF123E31AB63AA64A96585698285688391
:1036AF00E5671216720569E56970D3056880CF7BEF
:1036BF00007A0079677FFF123E317B007A007967CD
:1036CF007FFF123E31800875668480037566837BA9
:0C36DF00007A0079677FFF123E31AF6671
:0136EB0022BC
:1024DE00E4F523781D76FFD2947BFF7A3079BB1218
:1024EE0021E4E4F5227B007A00792D7FFF123E3144
:1024FE008F240522E522C3940A40EAC2A77BFF7A05
:10250E003079D91221E4C294E4F565F564F563F5EA
:10251E0062FF1235168F24E52470171239CA8F24E4
:10252E00D294D2A77BFF7A3079E88525381221E440
:10253E008006D294D2A7C2A4E5246002F523E52337
:10254E0060030225F8C2A77BFF7A3079FC1221E4E2
:10255E00C294E47565AA756401F563F5627F08128D
:10256E0035168F24E524704BFB7A0079257F0512F2
:10257E0039D18F24D294D2A77BFF7A31790B1221D5
:10258E00E4E4F5227BFF7A31791774252522F8E6EB
:10259E00F5381221E40522E522C3940540E67F0DAD
:1025AE001200037F0A120003E52964AA600B75244A
:1025BE00838006D294D2A7C2A4E5246020B48218E8
:1025CE00E4F523781D76097BFF7A31791F1221E419
:1025DE007BFF7A31793D800F852423800D781D761F
:1025EE00027BFF7A3179601221E4E523706DC2A778
:1025FE007BFF7A31797E1221E41235098F24E5248E
:10260E00704DFB7A0079257F051239D18F24D29433
:10261E00D2A77BFF7A31790B1221E4E4F5227BFFFE
:10262E007A31791774252522F8E6F5381221E4055A
:10263E0022E522C3940540E67F0D1200037F0A12A5
:10264E000003E52754FC64FC600B7524858006D2DC
:10265E0094D2A7C2A4E5246002F523E52360030209
:10266E002718781DE6B4020CE4F531F530F52F7518
:10267E002E408009E4F531F530F52FF52EE4F532D4
:10268E00F533C2A77BFF7A31798E1221E4C294C250
:10269E00B5E4F565F564F563F5627F371235168F8F
:1026AE0024E52470051239CA8F24D2B5E5256401BC
:1026BE006004E5257013853165853064852F63854B
:1026CE002E627F291235168F24E52470031239CA23
:1026DE000533E5337002053245327003752481E50A
:1026EE002530E004E52460A7E5247012D294D2A729
:1026FE007BFF7A3079E88525381221E48006D29462
:10270E00D2A7C2A4E5246002F523E52360030227C5
:10271E00FE781DE6640260030227FEC2A77BFF7AE5
:10272E0031797E1221E41235098F24E524600302EB
:10273E0027EDFB7A0079257F051239D18F24D294AB
:10274E00D2A77BFF7A31790B1221E4E4F5227BFFCD
:10275E007A31791774252522F8E6F5381221E40529
:10276E0022E522C3940540E67F0D1200037F0A1274
:10277E000003E52620E7057524868069E52654C00A
:10278E00FFBFC00CE4781DF67BFF7A31799F804A3B
:10279E00781D76097BFF7A3179BD1221E4C2A77BC1
:1027AE00FF7A3179DF1221E4C294E4F56575640293
:1027BE00F563F5627F101235168F24E5247026120C
:1027CE0039CA8F24D294D2A77BFF7A3179EF85252F
:1027DE00381221E47BFF7A3279041221E48006D28A
:1027EE0094D2A7C2A4E5246007F523AF23123C9927
:0A27FE00E5236004FF123C99AF23AD
:0128080022AD
:053F9A00781DE6FF2286
:103C99008F34E534B481087BFF7A3279228052E58A
:103CA90034B482087BFF7A3279308045E534B483B5
:103CB900087BFF7A3279428038E534B484087BFF87
:103CC9007A327951802BE534B485087BFF7A3279D1
:103CD90062801EE534B486087BFF7A3279778011D9
:103CE900E5347BFFB487067A32798880047A3279A1
:053CF9009D1221E422F0
:10393400E478A3F6AB07AA06A905A804FF7E407D98
:10394400197C011217D978A2EFF6D39402500575A9
:10395400C370806D78A2E6FFD39402400BEFD3943A
:1039640004500575C3718059EFD39404400BEFD311
:103974009408500575C3728048EFD39408400BEF48
:10398400D39410500575C3738037EFD39410400B54
:10399400EFD39420500575C3F08026EFD3942040D4
:1039A4000BEFD39440500575C3F18015EFD39440C9
:1039B400400BEFD39480500575C3F2800478A3764E
:0539C4000F78A3E6FFEF
:0139C90022DB
:103E3100E4FE8FC5AFC40EEF54F07003EE70F5EEE3
:103E41006012EF54707004E5C5800274FF121660B1
:0D3E5100E4FE800774FF1216607E80AF064D
:013E5E002241
:1032AB004F75747075742066726F6D20494420726F
:1032BB00656769737465723A2025322E3262582025
:1032CB000A0D0053544130313320536F66745665E9
:1032DB007273696F6E3A2025322E326258200A0DB6
:1032EB0000466972737420636F6E666967757261ED
:1032FB0074696F6E2066696C652073656E742E2E13
:10330B002E0A0D0054696D656F75742065786974AC
:10331B00200A0D004E756D626572206F6620766116
:10332B006C756573207772697474656E3A202564C9
:10333B00200A0D005365636F6E6420636F6E6669C0
:10334B006775726174696F6E2066696C6520736551
:10335B006E742E2E2E0A0D0053656E7420746F2022
:10336B005354413031333A2025322E3262582020CB
:10337B0025322E326258200A0D004F757470757409
:10338B002066726F6D2072656769737465723A207F
:10339B0025322E326258202025322E3262582025BB
:1033AB00322E326258200A0D00436F6E66696775C4
:1033BB00726174696F6E20436F6D706C6574650A12
:1033CB000D005455060B525165645061050D180CD8
:1033DB0046487D7207100902B80000000605A100DF
:0633EB00040507070001C4
:102B1D00C2B378A47601187632D2B3C2B47B007AF0
:102B2D000079A47D017F431236EC78A2A607081622
:102B3D00E6FF7002C2A678A2E66003EF70DF78A30D
:102B4D00E6602D76327B007A0079A77D017F4312F6
:102B5D0033F178A2EFF608166003E670E878A3E685
:102B6D00600E7BFF7A3279AB78A7E6F5381221E457
:102B7D00D2B478A7E664AC6003022DF178A4767127
:102B8D00FB7A0079A47D017F431236EC78A2A6076B
:102B9D007B007A0079A77D017F431233F178A2A6DD
:102BAD00077BFF7A3279CE78A7E6F5381221E4E477
:102BBD0078AAF608F67522FF75230075242EAB2230
:102BCD00AA23A92478AAE6FE08E6F5828E831216BA
:102BDD000078A4F678AB06E61870010678AAE6FE32
:102BED0008E6F5828E8312160078A5F678AB06E618
:102BFD001870010678A4E6F460241876327B007A0A
:102C0D000079A47D027F431236EC78A2A607081640
:102C1D00E6FF7002C2A678A2E66003EF70DF78A42B
:102C2D00E6F4600418E670967BFF7A3279EC122197
:102C3D00E478A3E670097BFF7A33790F1221E47BE8
:102C4D00FF7A33791F78AAE6C313F53808E613F532
:102C5D00391221E4E478AAF608F67522FF75230FE0
:102C6D007524CEAB22AA23A92478AAE6FE08E6F5A0
:102C7D00828E8312160078A4F678AB06E6187001E2
:102C8D000678AAE6FE08E6F5828E8312160078A570
:102C9D00F678AB06E61870010678A4E6F460241801
:102CAD0076327B007A0079A47D027F431236EC7870
:102CBD00A2A6070816E6FF7002C2A678A2E6600378
:102CCD00EF70DF78A4E6F4600418E670967BFF7A67
:102CDD0033793F1221E478A3E670097BFF7A3379CB
:102CED000F1221E47BFF7A33791F78AAE6C313F51F
:102CFD003808E613F5391221E478A476717B007A51
:102D0D000079A47D017F431236EC78A2A6077B00E3
:102D1D007A0079A77D017F431233F178A2A6077B54
:102D2D00FF7A3279CE78A7E6F5381221E4E478AA55
:102D3D00F608F678AAE6FE08E6FF24CDF582743390
:102D4D003EF583E49378A4F674DF2FF58274333E59
:102D5D00F583E49308F678A376327B007A0079A4A4
:102D6D007D027F431236EC78A2A6070816E6FF70A7
:102D7D0002C2A678A2E66003EF70DF7BFF7A33799B
:102D8D006378A4E6F53808E6F5391221E47B007A7C
:102D9D000079A47D017F431236EC78A2A6077B0053
:102DAD007A0079A77D017F431233F178A2EFF67B8C
:102DBD00FF7A33798578A4E6F53878A7E6F5398F6B
:102DCD003A1221E478AB06E618700106C378ABE63B
:102DDD00941218E694005003022D407BFF7A33794C
:082DED00B41221E478A2E6FF14
:012DF50022BB
:103E5F0053890F438910C2AB758DF4758B3DC28F9B
:103E6F00D28E308FFDC28EEF1F70011ED3EF9400E4
:063E7F00EE940050E32266
:103E850053890F438910C2ABE4F58DF58BC28FD2F0
:103E95008E308FFDC28EEF1F70011ED3EF9400EEA2
:053EA500940050E4222E
:053F2200C200752A3009
:103F2700A20092B6D2B7852A80C2B77580FFD2B6F3
:013F37002267
:103CFE00123F227F0A7E00123E5F123F227F057E18
:103D0E0000123E5F123F227F017E00123E5FC20014
:103D1E00752A38123F277F017E00123E5FC2007562
:103D2E002A48123F277F017E00123E5FC200752A8D
:103D3E0001123F277F057E00123E5FC200752A0CDE
:0A3D4E00123F277F017E00023E5F56
:083BC2008F268B278A28892930
:103BCA00E526703078A2F6801778A3E6FF6056D211
:103BDA0000F52A123F277F017E00123E8578A20651
:103BEA00AB27AA28A929E6F5827583001216007860
:103BFA00A3F680D5E478A2F678A2E6FFC39526500C
:103C0A0024AB27AA28A9298F827583001216007867
:103C1A00A3F6D200F52A123F277F017E00123E85C5
:053C2A0078A20680D322
:013C2F002272
:103EAA008B228A2389248D25C200752A80123F27F6
:103EBA007F017E00123E5FAB22AA23A924AF25020E
:023ECA003BC2F9
:103ECC008B228A2389248D25C200752AC0123F2794
:103EDC007F017E00123E5FAB22AA23A924AF2502EC
:023EEC003BC2D7
:103DCE0049324320546573742050726F6772616D6F
:103DDE000A0D0A0A005344204361726420496E6939
:103DEE007469616C697A6174696F6E202E2E2E2053
:033DFE000A0D00AB
:102DF600D2A6D2A5D2A7C2A4C2B3E4787BF608F6BF
:102E0600787BE6FE08E6FFE4FCFD7B607AEAF9F8EB
:102E1600C312186B400A787C06E61870E30680E059
:102E2600D2A4758E0C758F01123F4D7BFF7A3D79CA
:102E3600CE1221E47F807E1A7D067C00123934781A
:102E460081EFF66004C2A480FE7BFF7A3D79E3122F
:102E560021E41224DE7881EFF66004C2A480FE7FAE
:102E6600807EF07DFA7C021239347881EFF66004B8
:102E7600C2A480FEE4787BF608F6787BE6FE08E6D8
:102E8600FFC3EE9402502274002FF58274003EF5C3
:102E96008374FFF074002FF58274023EF58374FF8D
:102EA600F006E61870D40680D1E4787BF608F6784A
:102EB6007BE6FE08E6FFC3940CEE94005010748285
:102EC6002FF8E4F6787C06E61870E40680E17E00CA
:102ED6007F00121A197881EFF66004C2A480FE12F0
:102EE6003F939000061218B87873121955123CFEDB
:102EF600122B1D123F0A787312190C7526007527BE
:102F060000122809787DEEF608EFF60876000876B6
:102F160001D374019FE49E50030230697B007A005E
:102F260079717F04123A5BE5716403705F7880E61D
:102F360024FFFF18E634FFFEC3EF9401EE94004031
:102F46004B08E61618700116787312190C787FE68E
:102F5600F52608E6F527752800752900752A0075F7
:102F66002B00752C82752D00752E00752F92121070
:102F76002678771219557B007A0079827D10123EE9
:102F8600AA7B007A0079927D10123ECC7B007A00F3
:102F9600796F7F08123A5BE56F6403705F7880E6AD
:102FA6002401FF18E436FED3EF1896EE1896504C1F
:102FB600788006E618700106787312190C787FE699
:102FC600F52608E6F527752800752900752A007587
:102FD6002B00752C82752D00752E00752F92121000
:102FE6002678771219557B007A0079827D10123E79
:102FF600AA7B007A0079927D10123ECC7B007A0083
:10300600796B7F02123A5BE56B64036003022F2241
:10301600787712190CE4FFFEFDEC5410FC700302E5
:1030260030B0787712190CEC540FFC7877121955DA
:10303600787712190C123B5178731219557873125E
:10304600190C752600752700122809787DEEF608FA
:10305600EFF6087600087601D374019FE49E4003DC
:10306600022F22787312190C787FE6F52608E6F50A
:1030760027752800752900752A00752B00752C8286
:10308600752D00752E00752F92121026787712195D
:10309600557B007A0079827D10123EAA7B007A0069
:1030A60079927D10123ECC022F22787712190C12DB
:0530B60037B9022F22D2
:103F0A00E4F56A756D01F56E756B01F56C757101F5
:083F1A00F572756F01F57022CC
:103A5B001215E724FE602214603F14604014604C82
:103A6B002404706AE5A05F70657402121660E4F5B9
:103A7B006A9000017414021672740B256AF56A9031
:103A8B000001121600FEE56AC39E4042E5A05F707E
:103A9B000474038036740180327404802EE5A05FB9
:103AAB006F702B7405121660E4F56A22740B256A8D
:103ABB00F56A900001121600FEE56AC39E400FE501
:0F3ACB00A05FB507047401800274041216602214
:1015E700BB010689828A83E0225002E722BBFE0202
:0915F700E32289828A83E4932235
:10160000BB010CE58229F582E5833AF583E022509F
:1016100006E92582F8E622BBFE06E92582F8E222E9
:0D162000E58229F582E5833AF583E4932203
:10162D00BB010FF8E58229F582E5833AF583E028C1
:10163D00F0225009C58229F8E58226F622BBFE0963
:10164D00C58229F8E22582F222F8EA2583F583E99D
:03165D00932822AD
:10166000BB010689828A83F0225002F722BBFE0169
:02167000F32263
:10167200F8BB010DE58229F582E5833AF583E8F0AE
:10168200225006E92582C8F622BBFE05E92582C85A
:02169200F22242
:10169400BC000BBE0029EF8DF084FFADF022E4CC3A
:1016A400F875F008EF2FFFEE33FEEC33FCEE9DEC03
:1016B400984005FCEE9DFE0FD5F0E9E4CEFD22ED49
:1016C400F8F5F0EE8420D21CFEADF075F008EF2F93
:1016D400FFED33FD4007985006D5F0F222C398FD84
:0516E4000FD5F0EA2221
:1016E900BB0110E58229F582E5833AF583E0F5F03F
:1016F900A3E0225009E92582F886F008E622BBFE1C
:101709000AE92582F8E2F5F008E222E5832AF58361
:08171900E993F5F0A3E9932226
:10172100F8BB0111E58229F582E5833AF583E8F0FA
:10173100E5F0A3F0225009E92582C8F608A6F022B7
:0D174100BBFE09E92582C8F2E5F008F2229E
:10174E00E88FF0A4CC8BF0A42CFCE98EF0A42CFC3A
:10175E008AF0EDA42CFCEA8EF0A4CDA8F08BF0A4B8
:10176E002DCC3825F0FDE98FF0A42CCD35F0FCEB17
:10177E008EF0A4FEA9F0EB8FF0A4CFC5F02ECD39DC
:0F178E00FEE43CFCEAA42DCE35F0FDE43CFC2249
:10179D0075F008758200EF2FFFEE33FECD33CDCC03
:1017AD0033CCC58233C5829BED9AEC99E582984086
:1017BD000CF582EE9BFEED9AFDEC99FC0FD5F0D663
:1017CD00E4CEFBE4CDFAE4CCF9A88222B800C1B98D
:1017DD000059BA002DEC8BF084CFCECDFCE5F0CBCB
:1017ED00F97818EF2FFFEE33FEED33FDEC33FCEB04
:1017FD0033FB10D703994004EB99FB0FD8E5E4F9BF
:10180D00FA227818EF2FFFEE33FEED33FDEC33FCAB
:10181D00C933C910D7059BE99A4007EC9BFCE99A9F
:10182D00F90FD8E0E4C9FAE4CCFB2275F010EF2FE4
:10183D00FFEE33FEED33FDCC33CCC833C810D707E4
:10184D009BEC9AE899400AED9BFDEC9AFCE899F81F
:0E185D000FD5F0DAE4CDFBE4CCFAE4C8F922B2
:10186B00EB9FF5F0EA9E42F0E99D42F0EC6480C8F4
:06187B0064809845F02294
:10188100EB9FF5F0EA9E42F0E99D42F0E89C45F0BD
:011891002234
:10189200E8600FECC313FCED13FDEE13FEEF13FF34
:0318A200D8F12258
:1018A500E8600FEFC333FFEE33FEED33FDEC33FCA1
:0318B500D8F12245
:1018B800BB010DE58229F582E5833AF58302197AA1
:1018C8005007E92582F802190CBBFE07E92582F8C2
:1018D800021986E58229F582E5833AF58302199291
:1018E800BB010DE58229F582E5833AF5830219CB20
:1018F8005007E92582F8021955BBFE07E92582F849
:041908000219D722C7
:0C190C00E6FC08E6FD08E6FE08E6FF2207
:0D191800E6FB08E6F908E6FA08E6CBF8223F
:10192500BB010DE58229F582E5833AF5830219A20B
:101935005007E92582F8021918BBFE07E92582F848
:101945000219AEE58229F582E5833AF5830219BBD2
:0C195500ECF608EDF608EEF608EFF622BE
:10196100D083D082E493F608740193F6087402934D
:09197100F608740393F674047384
:10000300EFB40A07740D12000E740A309811A89900
:10001300B8130CC2983098FDA899C298B811F6305D
:0700230099FDC299F5992235
:10218200E5442438F8E605442278353008027838E8
:10219200E475F0011219E30215E72001EB7F2ED25C
:1021A200018018EF540F2490D43440D4FF30050B33
:1021B200EF24BFB41A0050032461FFE54560021505
:1021C200450548E5487002054730080D7835E47545
:1021D200F0011219E3EF0216600200037403D20841
:1021E2008003E4C208F5448B358A368937E4F54525
:1021F200F547F548E54560077F201221BD80F5755A
:1022020046FFC202C201C203C204C206C207C20919
:1022120012218BFF700D3008057F001221CEAF48CE
:10222200AE4722B4255FC2D5C20512218BFF24D04E
:10223200B40A00501A75F00A784530D50508B6FF81
:102242000106C6A426F620D5047002D20480D92441
:10225200CFB41A00EF5004C2E5D2050223CED20257
:1022620080C6D20180C0D20380BCD2D580BAD20649
:1022720080B47F201221BD2003077401B5450040C0
:10228200F1122182FF1221BD0221F6D209D207806A
:1022920095122182FB122182FA122182F94A4B7095
:1022A20006799F7A247BFF20032EE545602A7E0073
:1022B2008E8275830012160060060EEE654670F07F
:1022C200C2D5EBC0E0EAC0E0E9C0E0EE122415D0CE
:1022D200E0F9D0E0FAD0E0FB1215E7FF60AAEBC00C
:1022E200E0EAC0E0E9C0E01221BDD0E02401F9D06B
:1022F200E03400FAD0E0FBE5460460DCD546D98044
:10230200877BFF7A247911D203809C79108002792D
:1023120008C207C2098008D2D5790A8004790AC2A4
:10232200D5E546047002F546E4FAFDFEFF1221826D
:10233200FC7B08200213122182FD7B1030010A125D
:102342002182FE122182FF7B20EC3382D592D5506E
:1023520013C3E43001069FFFE49EFEE42002039DC6
:10236200FDE49CFCE4CBF8C202EC700CCFCECDCCE9
:10237200E824F8F870F38017C3EF33FFEE33FEED75
:1023820033FDEC33FCEB33FB994002FB0FD8E9EB56
:10239200300205F8D0E0C448B202C0E00AEC4D4E6B
:1023A2004F78207B0070C2EAB5460040BCC0E01204
:1023B2002417D0F0D0E0200204C4C0E0C4B202C0AE
:1023C200F01221A6D0F0D5F0EB0221F61219F32279
:1023D2009353230D5822644C22604223114F231938
:0F23E20044231949227943231F5523034623031C
:1023F1004523034724BF5022682D226C2E228F2BA8
:10240100227023228D2024A82A2228480000228716
:102411003F3F3F00790AA2D5200414300609B910C4
:10242100020404B9080104A2D520070250010420C6
:1024310003689203B545005034C0E07F2030041991
:102441007F30A20372077206500F12246EC203C2BC
:1024510007C206C2097F30800F300603E9C0E012CF
:1024610021BD300603D0E0F9D0E0B545CC300617E8
:102471007F30B9100C1221BD7F583005077F78805D
:1024810003B908031221BD3003057F2D0221BD7F51
:10249100202009F87F2B2007F322920380CF286E9A
:1024A100756C6C2900D2021221823002F8C20278C6
:1024B1004530D50108F60222282D504349581221F2
:1024C100822403B405004001E49024BA931221AEA2
:0D24D100743A1221AED20475450402230DA9
:0C197A00E0FCA3E0FDA3E0FEA3E0FF22E0
:0C198600E2FC08E2FD08E2FE08E2FF229D
:10199200E493FC740193FD740293FE740393FF229B
:0C19A200E0F8A3E0F9A3E0FAA3E0FB22C8
:0D19AE00E2FB08E2F908E2FA08E2CBF822B9
:1019BB00E493F8740193F9740293FA740393FB2282
:0C19CB00ECF0A3EDF0A3EEF0A3EFF0228F
:0C19D700ECF208EDF208EEF208EFF2224C
:1019E300FAE6FB0808E6F925F0F618E6CA3AF62205
:1019F300D083D082F8E4937012740193700DA3A383
:101A030093F8740193F5828883E473740293686096
:061A1300EFA3A3A380DF96
:00000001FF
